:020000040800F2
:1000000000000220553D00089513000897130008D2
:10001000991300089B1300089D13000800000000BE
:100020000000000000000000000000009F13000816
:10003000A113000800000000A3130008A513000886
:10004000A53D0008A53D0008A53D0008A53D000808
:10005000A53D0008A53D0008A53D0008A53D0008F8
:10006000A53D0008A53D0008A53D0008A53D0008E8
:10007000A53D0008A53D0008A53D0008A53D0008D8
:10008000A53D0008A53D0008AD130008A53D0008EA
:10009000A53D0008A53D0008A53D0008A53D0008B8
:1000A000A53D0008A53D0008A53D0008A53D0008A8
:1000B000A53D0008D1130008A53D0008A53D000896
:1000C000A53D0008A53D0008A53D0008A53D000888
:1000D000A53D0008A53D0008A53D0008A53D000878
:1000E000A53D0008A53D0008A53D0008A53D000868
:1000F000A53D0008A53D0008A53D0008A53D000858
:10010000A53D0008A53D0008A53D0008A53D000847
:10011000A53D0008A53D0008A53D0008A53D000837
:10012000E1130008F113000801140008A53D0008C0
:10013000A53D00080000000000000000A53D0008EB
:10014000A53D0008A53D0008A53D0008A53D000807
:10015000A53D0008A53D0008A53D0008A53D0008F7
:10016000A53D0008A53D0008A53D0008A53D0008E7
:10017000A53D0008A53D0008A53D000800000000C1
:1001800000000000A53D0008000000000000000085
:10019000A53D00080000000000000000A53D00088B
:1001A000000000000000000000000000A53D000865
:1001B000A53D0008A53D0008A53D0008A53D000897
:0401C000A53D000851
:1001D00010B5054C237833B9044B13B10448AFF381
:1001E00000800123237010BDDC010020000000000E
:1001F000686C000808B5034B1BB103490348AFF313
:10020000008008BD00000000E0010020686C0008CC
:10021000034613F8012B002AFBD1181A0138704746
:1002200001F0FF01102A2BDB10F0070F08D010F8A7
:10023000013B013A8B422DD010F0070F42B3F6D1AB
:10024000F0B441EA012141EA014122F007047FF0C4
:1002500000070023F0E80256083C85EA010586EA1B
:10026000010685FA47F5A3FA87F586FA47F6A5FA57
:1002700087F68EB9EED1F0BC01F0FF0102F0070263
:1002800032B110F8013B013A83EA010313B1F8D10E
:100290000020704701387047002D06BF35460338EF
:1002A000073815F0010F07D1013015F4807F02BF28
:1002B000013015F4C03F0130F0BC0138704700BF79
:1002C00081F0004102E000BF83F0004330B54FEA07
:1002D00041044FEA430594EA050F08BF90EA020F74
:1002E0001FBF54EA000C55EA020C7FEA645C7FEA07
:1002F000655C00F0E2804FEA5454D4EB5555B8BF2A
:100300006D420CDD2C4480EA020281EA030382EA9A
:10031000000083EA010180EA020281EA0303362D2C
:1003200088BF30BD11F0004F4FEA01314FF4801CFF
:100330004CEA113102D0404261EB410113F0004F11
:100340004FEA03334CEA133302D0524263EB4303C8
:1003500094EA050F00F0A780A4F10104D5F1200E66
:100360000DDB02FA0EFC22FA05F2801841F10001C1
:1003700003FA0EF2801843FA05F359410EE0A5F195
:1003800020050EF1200E012A03FA0EFC28BF4CF0C6
:10039000020C43FA05F3C01851EBE37101F000457C
:1003A00007D54FF0000EDCF1000C7EEB00006EEB89
:1003B0000101B1F5801F1BD3B1F5001F0CD3490813
:1003C0005FEA30004FEA3C0C04F101044FEA44526A
:1003D00012F5800F80F09A80BCF1004F08BF5FEAF1
:1003E000500C50F1000041EB045141EA050130BDD1
:1003F0005FEA4C0C404141EB0101013C28BFB1F5E3
:10040000801FE9D291F0000F04BF01460020B1FA2D
:1004100081F308BF2033A3F10B03B3F120020CDA00
:100420000C3208DD02F1140CC2F10C0201FA0CF0DE
:1004300021FA02F10CE002F11402D8BFC2F1200C43
:1004400001FA02F120FA0CFCDCBF41EA0C019040F9
:10045000E41AA2BF01EB0451294330BD6FEA040442
:100460001F3C1CDA0C340EDC04F11404C4F120022D
:1004700020FA04F001FA02F340EA030021FA04F33F
:1004800045EA030130BDC4F10C04C4F1200220FA96
:1004900002F001FA04F340EA0300294630BD21FAD4
:1004A00004F0294630BD94F0000F83F4801306BF9A
:1004B00081F480110134013D4EE77FEA645C18BF8E
:1004C0007FEA655C29D094EA050F08BF90EA020F25
:1004D00005D054EA000C04BF1946104630BD91EA1D
:1004E000030F1EBF0021002030BD5FEA545C05D120
:1004F0004000494128BF41F0004130BD14F580045F
:100500003CBF01F5801130BD01F0004545F0FE41D2
:1005100041F470014FF0000030BD7FEA645C1ABF07
:10052000194610467FEA655C1CBF0B46024650EA3E
:10053000013406BF52EA033591EA030F41F400216A
:1005400030BD00BF90F0000F04BF0021704730B5F0
:100550004FF4806404F132044FF000054FF00001C5
:1005600050E700BF90F0000F04BF0021704730B586
:100570004FF4806404F1320410F0004548BF40425B
:100580004FF000013EE700BF42004FEAE2014FEAB0
:1005900031014FEA02701FBF12F07F4393F07F4F8B
:1005A00081F06051704732F07F4208BF704793F08E
:1005B0007F4F04BF41F40021704730B54FF46074A1
:1005C00001F0004521F000411CE700BF50EA0102A4
:1005D00008BF704730B54FF000050AE050EA01024D
:1005E00008BF704730B511F0004502D5404261EBBD
:1005F00041014FF4806404F132045FEA915C3FF4FE
:10060000D8AE4FF003025FEADC0C18BF03325FEA9A
:10061000DC0C18BF033202EBDC02C2F1200300FA4B
:1006200003FC20FA02F001FA03FE40EA0E0021FA70
:1006300002F11444BDE600BF70B54FF0FF0C4CF45E
:10064000E06C1CEA11541DBF1CEA135594EA0C0F10
:1006500095EA0C0F00F0DEF82C4481EA030621EA4B
:100660004C5123EA4C5350EA013518BF52EA033586
:1006700041F4801143F4801338D0A0FB02CE4FF038
:100680000005E1FB02E506F00042E0FB03E54FF068
:100690000006E1FB03569CF0000F18BF4EF0010E60
:1006A000A4F1FF04B6F5007F64F5407404D25FEA5C
:1006B0004E0E6D4146EB060642EAC62141EA55510F
:1006C0004FEAC52040EA5E504FEACE2EB4F1FD0C51
:1006D00088BFBCF5E06F1ED8BEF1004F08BF5FEACF
:1006E000500E50F1000041EB045170BD06F0004681
:1006F00046EA010140EA020081EA0301B4EB5C042E
:10070000C2BFD4EB0C0541EA045170BD41F4801125
:100710004FF0000E013C00F3AB8014F1360FDEBF4A
:10072000002001F0004170BDC4F10004203C35DA26
:100730000C341BDC04F11404C4F1200500FA05F3A9
:1007400020FA04F001FA05F240EA020001F000424A
:1007500021F0004110EBD37021FA04F642EB0601C0
:100760005EEA430E08BF20EAD37070BDC4F10C04EA
:10077000C4F1200500FA04F320FA05F001FA04F2AE
:1007800040EA020001F0004110EBD37041F100019A
:100790005EEA430E08BF20EAD37070BDC4F12005A5
:1007A00000FA05F24EEA020E20FA04F301FA05F20D
:1007B00043EA020321FA04F001F0004121FA04F2B5
:1007C00020EA020000EBD3705EEA430E08BF20EA85
:1007D000D37070BD94F0000F0FD101F000464000BF
:1007E00041EB010111F4801F08BF013CF7D041EA41
:1007F000060195F0000F18BF704703F00046520045
:1008000043EB030313F4801F08BF013DF7D043EA15
:100810000603704794EA0C0F0CEA135518BF95EACB
:100820000C0F0CD050EA410618BF52EA4306D1D152
:1008300081EA030101F000414FF0000070BD50EA71
:10084000410606BF1046194652EA430619D094EAFB
:100850000C0F02D150EA013613D195EA0C0F05D1E5
:1008600052EA03361CBF104619460AD181EA030139
:1008700001F0004141F0FE4141F470014FF00000F1
:1008800070BD41F0FE4141F4780170BD70B54FF08C
:10089000FF0C4CF4E06C1CEA11541DBF1CEA13550C
:1008A00094EA0C0F95EA0C0F00F0A7F8A4EB0504EE
:1008B00081EA030E52EA03354FEA013100F08880E5
:1008C0004FEA03334FF0805545EA131343EA1263AE
:1008D0004FEA022245EA111545EA10654FEA002663
:1008E0000EF000419D4208BF964244F1FD0404F51C
:1008F000407402D25B084FEA3202B61A65EB030578
:100900005B084FEA32024FF480104FF4002CB6EB34
:10091000020E75EB030E22BFB61A754640EA0C00B4
:100920005B084FEA3202B6EB020E75EB030E22BFF4
:10093000B61A754640EA5C005B084FEA3202B6EB35
:10094000020E75EB030E22BFB61A754640EA9C00F4
:100950005B084FEA3202B6EB020E75EB030E22BFC4
:10096000B61A754640EADC0055EA060E18D04FEA82
:10097000051545EA16754FEA06164FEAC30343EA22
:1009800052734FEAC2025FEA1C1CC0D111F4801FEF
:100990000BD141EA00014FF000004FF0004CB6E7E8
:1009A00011F4801F04BF01430020B4F1FD0C88BF87
:1009B000BCF5E06F3FF6AFAEB5EB030C04BFB6EB92
:1009C000020C5FEA500C50F1000041EB045170BD85
:1009D0000EF0004E4EEA113114EB5C04C2BFD4EBB2
:1009E0000C0541EA045170BD41F480114FF0000E36
:1009F000013C90E645EA060E8DE60CEA135594EAB2
:100A00000C0F08BF95EA0C0F3FF43BAF94EA0C0FB4
:100A10000AD150EA01347FF434AF95EA0C0F7FF429
:100A200025AF104619462CE795EA0C0F06D152EA7D
:100A300003353FF4FDAE1046194622E750EA410661
:100A400018BF52EA43067FF4C5AE50EA41047FF472
:100A50000DAF52EA43057FF4EBAE12E74FF0FF3CD7
:100A600006E000BF4FF0010C02E000BF4FF0010CA8
:100A70004DF804CD4FEA410C7FEA6C5C4FEA430C21
:100A800018BF7FEA6C5C1BD001B050EA410C0CBF70
:100A900052EA430C91EA030F02BF90EA020F0020D2
:100AA000704710F1000F91EA030F58BF994208BF39
:100AB00090422CBFD8176FEAE37040F001007047F6
:100AC0004FEA410C7FEA6C5C02D150EA013C07D14D
:100AD0004FEA430C7FEA6C5CD6D152EA033CD3D098
:100AE0005DF8040B704700BF8446104662468C4692
:100AF0001946634600E000BF01B5FFF7B7FF0028C5
:100B000048BF10F1000F01BD4DF808EDFFF7F4FFED
:100B10000CBF012000205DF808FB00BF4DF808ED78
:100B2000FFF7EAFF34BF012000205DF808FB00BF9B
:100B30004DF808EDFFF7E0FF94BF012000205DF8BD
:100B400008FB00BF4DF808EDFFF7CEFF94BF012072
:100B500000205DF808FB00BF4DF808EDFFF7C4FF6B
:100B600034BF012000205DF808FB00BF4FEA410CB4
:100B70007FEA6C5C02D150EA013C0AD14FEA430C97
:100B80007FEA6C5C02D152EA033C02D14FF00000D4
:100B900070474FF0010070474FEA410212F5001212
:100BA00015D211D56FF47873B3EB625212D94FEAB4
:100BB000C12343F0004343EA505311F0004F23FA9E
:100BC00002F018BF404270474FF00000704750EAF3
:100BD000013005D111F0004008BF6FF000407047B0
:100BE0004FF00000704700BF53B94AB9002908BF51
:100BF00000281CBF4FF0FF314FF0FF3000F074B9F8
:100C0000ADF1080C6DE904CE00F006F8DDF804E063
:100C1000DDE9022304B070472DE9F047089D044642
:100C20008E46002B4DD18A42944669D9B2FA82F29F
:100C300052B101FA02F3C2F1200120FA01F10CFADB
:100C400002FC41EA030E94404FEA1C48210CBEFB13
:100C5000F8F61FFA8CF708FB16E341EA034306FB9C
:100C600007F199420AD91CEB030306F1FF3080F02B
:100C70001F81994240F21C81023E63445B1AA4B278
:100C8000B3FBF8F008FB103344EA034400FB07F71A
:100C9000A7420AD91CEB040400F1FF3380F00A815B
:100CA000A74240F207816444023840EA0640E41B50
:100CB00000261DB1D4400023C5E900433146BDE8FC
:100CC000F0878B4209D9002D00F0EF800026C5E99E
:100CD000000130463146BDE8F087B3FA83F6002EB6
:100CE0004AD18B4202D3824200F2F980841A61EB2E
:100CF000030301209E46002DE0D0C5E9004EDDE74C
:100D000002B9FFDEB2FA82F2002A40F09280A1EB33
:100D10000C014FEA1C471FFA8CFE0126200CB1FB88
:100D2000F7F307FB131140EA01410EFB03F0884281
:100D300008D91CEB010103F1FF3802D2884200F20E
:100D4000CB804346091AA4B2B1FBF7F007FB1011A0
:100D500044EA01440EFB00FEA64508D91CEB04043E
:100D600000F1FF3102D2A64500F2BB800846A4EB99
:100D70000E0440EA03409CE7C6F12007B34022FA84
:100D800007FC4CEA030C20FA07F401FA06F31C43B3
:100D9000F9404FEA1C4900FA06F3B1FBF9F8200CC0
:100DA0001FFA8CFE09FB181140EA014108FB0EF006
:100DB000884202FA06F20BD91CEB010108F1FF3A56
:100DC00080F08880884240F28580A8F10208614462
:100DD000091AA4B2B1FBF9F009FB101144EA014170
:100DE00000FB0EFE8E4508D91CEB010100F1FF341B
:100DF0006CD28E456AD90238614440EA0840A0FBB3
:100E00000294A1EB0E01A142C846A64656D353D088
:100E10005DB1B3EB080261EB0E0101FA07F722FAAC
:100E200006F3F1401F43C5E9007100263146BDE8D5
:100E3000F087C2F12003D8400CFA02FC21FA03F338
:100E4000914001434FEA1C471FFA8CFEB3FBF7F0B9
:100E500007FB10360B0C43EA064300FB0EF69E42DE
:100E600004FA02F408D91CEB030300F1FF382FD277
:100E70009E422DD9023863449B1B89B2B3FBF7F61F
:100E800007FB163341EA034106FB0EF38B4208D9F8
:100E90001CEB010106F1FF3816D28B4214D9023E39
:100EA0006144C91A46EA004638E72E46284605E757
:100EB0000646E3E61846F8E64B45A9D2B9EB020828
:100EC00064EB0C0E0138A3E74646EAE7204694E7B8
:100ED0004046D1E7D0467BE7023B614432E73046EB
:100EE00009E76444023842E7704700BF00231A460E
:100EF00003E030F813C0624401338B42F9DB92FB0C
:100F0000F1F080B2704772B6FEE7000000B595B010
:100F10003422002107A802F06BFF00230293039301
:100F20000493059306930093204A116C41F080517D
:100F30001164126C02F080520092009A01931C49D5
:100F40000A6822F4404242F400420A600A6802F44D
:100F500040420192019A0222079201210A91102136
:100F60000B910D920E9308230F93802310931192EF
:100F70001292139207A800F01BFE98B90F23029358
:100F800002230393002304934FF4A05305934FF4DB
:100F900080530693042102A800F074FC20B915B018
:100FA0005DF804FBFFF7AFFFFFF7ADFF003802402D
:100FB0000070004030B52DED028B9BB001F0A8FB16
:100FC000FFF7A4FF00F0B0F802F09AFE00F010F96D
:100FD00000F08EF902F0B4F802F0EAF802F01EF91F
:100FE00002F0CAFA484800F027F9484C0021204690
:100FF00001F06AFE0421204601F066FE0821204629
:1010000001F062FE0C21204601F05EFE00240E94E9
:101010000F9404220EA93E4802F0DEFB0C940D94BE
:1010200004220CA93B4802F0D7FB0A940B9404223B
:101030000AA9394802F0D0FB47F6FF73ADF8263015
:1010400000230493ADF8143006930793089304210A
:101050000AA8FFF74BFF0446ADF8140004210EA8C0
:10106000FFF744FF0546ADF8100004210CA8FFF778
:101070003DFFADF8120007EE905AF8EEE77A9FEDCB
:10108000277A67EE877ACDED067A06EE900AB8EEFB
:10109000E68A28EE078A8DED078A06EE904AF8EE7A
:1010A000E68A68EE878ACDED088A17EE900AFFF788
:1010B0006BFA04460D4618EE900AFFF765FACDE983
:1010C000020118EE100AFFF75FFACDE9000122468F
:1010D0002B46134910A803F0FDFA10A8FFF798F863
:1010E0004FF0FF3382B210A90E4801F0B2FF0A247C
:1010F0000094012309AA0DF12601034800F0A5FA86
:10110000204601F031FB97E7F80100209004002011
:1011100098020020E0020020280300203333533AD5
:10112000806C000850020020F0B58BB000240594BC
:10113000069407940894099401942A4B1A6B42F080
:1011400004021A631A6B02F004020192019A0294DB
:101150001A6B42F080021A631A6B02F0800202924C
:10116000029A03941A6B42F001021A631A6B02F09E
:1011700001020392039A04941A6B42F002021A636A
:101180001B6B03F002030493049B174D22460821B6
:10119000284601F01BF8154E22462021304601F06A
:1011A00015F84FF4005305934FF404130693079476
:1011B00005A9284600F01EFF08230593012706977E
:1011C00007940223089305A9284600F013FF202363
:1011D000059306970794089405A9304600F00AFF86
:1011E0000BB0F0BD00380240000802400000024091
:1011F00008B50F480F4B03604FF482734360002320
:1012000083604FF40062C260036143614FF4802247
:1012100082612022C2610362436283620A23C36245
:1012200000F0B4F900B908BDFFF76DFEFBE700BFA1
:10123000F8010020003800402DE9F04188B000237B
:10124000039304930593069307930268254B9A42F0
:1012500002D008B0BDE8F0810024009403F500330B
:101260001A6C42F480421A641A6C02F480420092B2
:10127000009A01941A6B42F004021A631A6B02F08E
:1012800004020192019A02941A6B42F002021A635C
:101290001B6B03F002030293029B02250395049546
:1012A0000326069607230793DFF8408003A94046EC
:1012B00000F0A0FE042303930495059406960527E9
:1012C000079703A9404600F095FE4FF4A0530393FF
:1012D000049505940696079703A9034800F08AFE33
:1012E000B7E700BF00380040000402400008024099
:1012F00008B50A480A4B03604FF4E133436000230A
:101300008360C36003610C2242618361C36101F0A9
:1013100071FE00B908BDFFF7F6FDFBE750020020A3
:101320000044004000B589B0002303930493059363
:10133000069307930268154B9A4202D009B05DF8F4
:1013400004FB0021019103F5FA331A6C42F40032D8
:101350001A641A6C02F400320192019A02911A6B1B
:1013600042F001021A631B6B03F001030293029B1C
:101370000C23039302230493032306930723079369
:1013800003A9034800F036FED8E700BF0044004040
:1013900000000240FEE7FEE7FEE7FEE7FEE77047DB
:1013A0007047704708B501F0CDF908BD08B505488C
:1013B00002F0E9FA044802F0E6FA044802F0E3FA1F
:1013C00008BD00BF98020020E00200202803002092
:1013D00008B5024801F075FA08BD00BF900400206E
:1013E00008B5024801F014F808BD00BF70030020E2
:1013F00008B5024801F00CF808BD00BF3004002019
:1014000008B5024801F004F808BD00BFD003002071
:1014100000B583B0002100910C4B5A6C42F480421D
:101420005A645A6C02F480420092009A01911A6C3C
:1014300042F080521A641B6C03F080530193019BAD
:10144000072001F0D3F803B05DF804FB0038024038
:101450002DE9F04782B00546884617461E4601F042
:101460007DF90A9B1B1A03EB060901F077F9824606
:101470002B4B1B68C3F3CB3309FB03F301932B689E
:101480009C6838EA04030CBF4FF0010C4FF0000CCD
:10149000BC4540D0B6F1FF3FF1D001F05FF9A0EBC1
:1014A0000A0048450AD2B9F1000F07D0019A02B1EB
:1014B0004A46019B013B01939146E0E72A68536845
:1014C00023F0E00353606B68B3F5827F0BD0AB6A07
:1014D000B3F5005F14D0012385F85130002385F85F
:1014E0005030032018E0AB68B3F5004F02D0B3F5DD
:1014F000806FECD12A68136823F040031360E6E79D
:101500002A68136823F4005313602A68136843F4AD
:1015100000531360DFE7002002B0BDE8F08700BF92
:101520000800002010B584B00446164B1868164B0E
:10153000A3FB0030400D4FF47A7303FB00F00390DF
:101540006368B3F5827F0BD0039BBBB1039B013B68
:10155000039323689B6813F0800FF5D100200EE001
:1015600000920B46002280212046FFF771FF30B128
:10157000636D43F020036365032000E0002004B0A6
:1015800010BD00BF08000020819F5E1600285AD0C1
:1015900010B50446436A33B94368B3F5827F05D07A
:1015A0000023C36102E00023036143610023A362BF
:1015B00094F85130002B40D0022384F85130226837
:1015C000136823F040031360636803F48273A26816
:1015D00002F404421343E26802F4006213432269F6
:1015E00002F002021343626902F001021343A2698E
:1015F00002F400721343E26902F038021343226AD4
:1016000002F080021343A26A02F4005221681343DD
:101610000B60638B03F00403626A02F0100221681E
:1016200013434B602268D36923F40063D361002025
:101630006065012384F8513010BD84F85030204695
:10164000FFF7FAFDB8E7012070472DE9F04383B0BA
:101650001F460A9D90F85030012B00F0108104467F
:1016600088469146012380F8503001F077F806460D
:1016700094F85130DBB26268012B0AD0B2F5827F58
:1016800040F0E380A268002A40F0E980042B40F09B
:10169000E880B8F1000F00F0E680B9F1000F00F02B
:1016A000E480002F00F0E38094F85130DBB2042B8B
:1016B00002D0052384F8513000236365C4F83890C4
:1016C000E787A787C4F83080E786A786236463642A
:1016D00023681A6812F0400F03D11A6842F04002E2
:1016E0001A60E368B3F5006F11D063680BB1012F86
:1016F0000BD1226B236812781A73236B0133236397
:10170000E38E9BB2013B9BB2E38601276BE06368EB
:101710000BB1012F0BD1226B23681288DA60236B87
:1017200002332363E38E9BB2013B9BB2E386012726
:101730001CE023689A6812F0010F0ED0E28F92B27B
:101740005AB1DA68A36B1A80A36B0233A363E38FE9
:101750009BB2013B9BB2E387012700F0FFFF801B98
:10176000A84203D3B5F1FF3F40F08380E38E9BB2E4
:101770001BB9E38F9BB2002B53D023689A6812F0F9
:10178000020FD6D0E28E92B2002AD2D0002FD0D053
:10179000226B1288DA60236B02332363E38E9BB2E1
:1017A000013B9BB2E3860027C3E723689A6812F0E7
:1017B000010F0ED0E28F92B25AB1DA68A36B1A70A1
:1017C000A36B0133A363E38F9BB2013B9BB2E3871F
:1017D000012700F0C3FF831BAB4202D3B5F1FF3FEB
:1017E00049D1002D49D0E38E9BB213B9E38F9BB250
:1017F000BBB123689A6812F0020FD6D0E28E92B283
:10180000002AD2D0002FD0D0226B12781A73236B0B
:1018100001332363E38E9BB2013B9BB2E386002737
:10182000C3E7324629462046FFF77CFE48B9A36845
:1018300063B901932368DA6801929B680193019B65
:1018400004E020236365012000E00220012384F8E6
:101850005130002384F8503003B0BDE8F0830220FB
:10186000F4E70220F2E70120F0E70120EEE7012093
:10187000ECE70320EAE70320E8E70320E6E702209D
:10188000EAE70000002800F09B8070B50D46044692
:101890004F4B1B6803F00F038B4208D2CBB24C4A6C
:1018A0001370136803F00F038B4240F08B802368A2
:1018B00013F0020F17D013F0040F04D0454A9368B9
:1018C00043F4E0539360236813F0080F04D0414AB7
:1018D000936843F4604393603E4A936823F0F003B7
:1018E000A1680B439360236813F0010F32D0636843
:1018F000012B21D09A1E012A25D9364A126812F0EE
:10190000020F61D033498A6822F0030213438B60CF
:1019100000F024FF06462F4B9B6803F00C0362681F
:10192000B3EB820F16D000F019FF801B41F2883311
:101930009842F0D9032042E0264A126812F4003F90
:10194000E0D101203BE0234A126812F0007FD9D198
:10195000012034E01E4B1B6803F00F03AB4207D994
:10196000EAB21B4B1A701B6803F00F03AB422DD178
:10197000236813F0040F06D0164A936823F4E0534B
:10198000E1680B439360236813F0080F07D0114AF6
:10199000936823F46043216943EAC103936000F034
:1019A00047F80C4B9B68C3F303130B4AD35CD84036
:1019B0000A4B18600A4B186800F084FE002070BDC6
:1019C000012070470120FAE70120F8E70120F6E73F
:1019D000003C024000380240A06C000808000020D3
:1019E00004000020014B1868704700BF0800002069
:1019F00008B5FFF7F7FF044B9B68C3F38223034A44
:101A0000D35CD84008BD00BF00380240B06C00086D
:101A100008B5FFF7E7FF044B9B68C3F34233034A63
:101A2000D35CD84008BD00BF00380240B06C00084D
:101A300008B55C4B9B6803F00C03082B07D00C2BFC
:101A40005BD0042B01D0584808BD5848FCE7554BE3
:101A50005A6802F03F025B6813F4800F2AD0514BA2
:101A60005968C1F3881C4FEA4C11B1EB0C006EEBC6
:101A70000E0E4FEA8E1343EA90638101091A63EB5D
:101A80000E03DB0043EA5173C90011EB0C0C43F168
:101A90000003590200234FEA4C2041EADC51FFF7D2
:101AA000A3F8404B5B68C3F3014301335B00B0FB19
:101AB000F3F0C9E73B4B5968C1F3881C4FEA4C115E
:101AC000B1EB0C006EEB0E0E4FEA8E1343EA9063FF
:101AD0008101091A63EB0E03DB0043EA5173C9006D
:101AE00011EB0C0C43F10003990200234FEA8C2008
:101AF00041EA9C51FFF778F8D3E72A4B5A6802F085
:101B00003F025B6813F4800F28D0264B5968C1F35D
:101B1000881C4FEA4C11B1EB0C006EEB0E0E4FEA35
:101B20008E1343EA90638101091A63EB0E03DB0015
:101B300043EA5173C90011EB0C0C43F10003590245
:101B400000234FEA4C2041EADC51FFF74DF8154BDA
:101B50005B68C3F30273B0FBF3F075E7114B596890
:101B6000C1F3881C4FEA4C11B1EB0C006EEB0E0E6A
:101B70004FEA8E1343EA90638101091A63EB0E0367
:101B8000DB0043EA5173C90011EB0C0C43F1000375
:101B9000990200234FEA8C2041EA9C51FFF724F878
:101BA000D5E700BF003802400024F40000127A009C
:101BB000002800F0018270B582B00446036813F07B
:101BC000010F41D0994B9B6803F00C03042B32D0DA
:101BD000964B9B6803F00C03082B27D0934B9B6814
:101BE00003F00C030C2B59D06368B3F5803F5BD036
:101BF000B3F5A02F5ED08D4B1A6822F480321A60A4
:101C00001A6822F480221A606368002B5CD000F00E
:101C1000A5FD0546854B1B6813F4003F14D100F069
:101C20009DFD401B6428F5D90320CCE17F4B5B6808
:101C300013F4800FD2D07D4B1B6813F4003F03D008
:101C40006368002B00F0BA81236813F0020F60D0A4
:101C5000764B9B6813F00C0F4AD0744B9B6803F0D3
:101C60000C03082B3FD0714B9B6803F00C030C2B2B
:101C700069D0E368002B75D06D4B01221A6000F02B
:101C80006DFD0546694B1B6813F0020F61D100F032
:101C900065FD401B0228F5D9032094E1634B5B6886
:101CA00013F4800FA0D0C6E7604A136843F4803372
:101CB0001360A9E75D4B1A6842F480221A601A6823
:101CC00042F480321A609FE700F048FD0546574B0A
:101CD0001B6813F4003FB7D000F040FD401B6428A0
:101CE000F5D903206FE1514B5B6813F4800FBAD133
:101CF0004E4B1B6813F0020F03D0E368012B40F03A
:101D00005F814A4A136823F0F803216943EAC1035B
:101D10001360236813F0080F49D06369002B33D098
:101D2000434B0122C3F8802E00F018FD05463F4BBF
:101D30005B6F13F0020F3AD100F010FD401B022838
:101D4000F5D903203FE1394B5B6813F4800F90D144
:101D5000CEE7364A136823F0F803216943EAC1034A
:101D60001360D6E7324B00221A6000F0F7FC0546FC
:101D70002E4B1B6813F0020FCBD000F0EFFC401B82
:101D80000228F5D903201EE1294B0022C3F8802E3A
:101D900000F0E4FC0546254B5B6F13F0020F06D004
:101DA00000F0DCFC401B0228F5D903200BE123687E
:101DB00013F0040F76D01D4B1B6C13F0805F33D1F2
:101DC00000230193194B1A6C42F080521A641B6C69
:101DD00003F080530193019B0125164B1B6813F4FC
:101DE000807F29D0A368012B3AD0052B3ED00F4B22
:101DF0001A6F22F001021A671A6F22F004021A67A2
:101E0000A368002B3CD000F0A9FC0646074B1B6FD3
:101E100013F0020F45D100F0A1FC801B41F2883382
:101E20009842F3D90320CEE00025D6E700380240DF
:101E300000004742007000406B4A136843F480730F
:101E4000136000F08BFC0646674B1B6813F4807F21
:101E5000C8D100F083FC801B0228F5D90320B2E032
:101E6000624A136F43F001031367C9E75F4B1A6FB0
:101E700042F004021A671A6F42F001021A67BFE7C4
:101E800000F06CFC0646594B1B6F13F0020F08D094
:101E900000F064FC801B41F288339842F3D90320A0
:101EA00091E0EDB9A369002B00F08C804F4A926855
:101EB00002F00C02082A54D0022B17D04C4B0022FF
:101EC0001A6600F04BFC0446484B1B6813F0007F79
:101ED00045D000F043FC001B0228F5D9032072E036
:101EE000424A136C23F080531364DBE7404B00221B
:101EF0001A6600F033FC05463C4B1B6813F0007F6C
:101F000006D000F02BFC401B0228F5D903205AE034
:101F1000E369226A1343626A43EA8213A26A52089F
:101F2000013A43EA0243E26A43EA0263226B43EA6C
:101F300002732E4A53602E4B01221A6600F00EFCEB
:101F400004462A4B1B6813F0007F06D100F006FC04
:101F5000001B0228F5D9032035E0002033E00020E3
:101F600031E0012B31D0214B5B6803F48001E26941
:101F700091422CD103F03F02216A8A4229D1616A41
:101F800047F6C0721A40B2EB811F24D103F44031EE
:101F9000A26A5208013AB1EB024F1ED103F07062FF
:101FA000E16AB2EB016F1AD103F0E043226BB3EBAD
:101FB000027F16D1002006E001207047012002E0D8
:101FC000012000E0002002B070BD0120FBE70120ED
:101FD000F9E70120F7E70120F5E70120F3E7012009
:101FE000F1E70120EFE700BF007000400038024039
:101FF0000000474200230F2B00F2DE8070B582B054
:1020000060E085685E000324B44025EA0405CC68DE
:10201000B4402C438460456825EA02054C68C4F34B
:1020200000129A402A4342605AE0DC08083450F813
:10203000246003F0070295000F22AA4026EA020E50
:102040000A69AA4042EA0E0240F824205CE0062217
:1020500000E0002202FA0EF22A430234574D45F8FE
:102060002420574A94686FEA0C0224EA0C054E6853
:1020700016F4801F01D04CEA0405514CA560E468B9
:1020800002EA04054E6816F4001F01D04CEA04056C
:102090004B4CE560646802EA04054E6816F4003FA4
:1020A00001D04CEA0405464C6560246822404D6826
:1020B00015F4803F01D04CEA0402414C2260013308
:1020C0000F2B77D801229A400C6804EA020C32EAFE
:1020D0000404F4D14C6804F00304013C012C90D9B1
:1020E0004A6802F00302032A09D0C4685D00032293
:1020F000AA4024EA02048A68AA402243C2604A68CD
:1021000002F00302022A90D004684FEA430E032231
:1021100002FA0EF224EA02044A6802F0030202FA0A
:102120000EF2224302604A6812F4403FC7D00022F8
:102130000192244A546C44F480445464526C02F476
:1021400080420192019A9C08A51C1C4A52F8255015
:1021500003F003024FEA820E0F2202FA0EF225EA82
:102160000205194A90423FF474AF02F58062904232
:1021700016D002F58062904214D002F5806290423F
:1021800012D002F58062904210D002F58062904237
:102190000ED002F5806290423FF459AF072259E712
:1021A000012257E7022255E7032253E7042251E7B1
:1021B00005224FE702B070BD704700BF00380140F4
:1021C000003C014000380240000002400AB1816139
:1021D000704709048161704730B405682C6824F4A5
:1021E00080242C60046863608368402B05D00368FA
:1021F00099600368DA6030BC704703689A600368CE
:10220000D960F8E710B40368D9B210390C4AA2FBC0
:10221000014212090B4CA25CC2655F2909D923F463
:102220007F7323F0030304338365806D5DF8044BF3
:10223000704723F47F7323F003038365F5E700BF42
:10224000ABAAAAAA986C0008836A826992B9012B8A
:102250000AD0022B02D00BB100207047C36A13F0E2
:10226000807F28D100207047C36AB3F1C07F24D09B
:1022700000207047B2F5005F09D0022B25D9032B4F
:1022800025D1C36A13F0807F23D100207047032B30
:1022900003D8DFE803F01404140A00207047C36A6F
:1022A00013F0807F0DD100207047C36AB3F1C07F67
:1022B00009D000207047012070470120704701209D
:1022C00070470120704701207047012070470020AF
:1022D000704701207047000070B5044600F03EFAD8
:1022E000002C5BD00546022384F83530002384F8A7
:1022F00034302268136823F00103136023681A68DE
:1023000012F0010F0AD000F029FA431B052BF5D972
:1023100020236365032084F8350070BD1A682048C7
:1023200010406168A2680A43E1680A4321690A43D0
:1023300061690A43A1690A43E1690A43216A0A43C0
:102340000243616A04291ED01A602668756925F067
:102350000705636A1D43042B07D1A36A1D43E36A83
:102360001BB12046FFF770FF90B975612046FFF75B
:1023700049FFE26D3F2393408360002060650123A5
:1023800084F83530C9E7E16A206B01430A43DBE793
:1023900040236365012084F83500BEE70120BCE7D7
:1023A0003F8010F038B50446856D90F83400012860
:1023B0002BD0012084F8340094F83500C0B20128F5
:1023C00004D0002384F83430022038BD022084F881
:1023D0003500002060652046FFF7FEFEE26D3F23DA
:1023E0009340AB602268136843F016031360236CBC
:1023F00023B12268136843F008031360226813684E
:1024000043F0010313600020DFE70220DDE7000056
:10241000F0B583B0044600230193724B1D68724BE4
:10242000A3FB0535AD0A876D3E68C26D0823934056
:10243000334210D003681A6812F0040F0BD01A68E8
:1024400022F004021A60C26D08239340BB60436D02
:1024500043F001034365E26D01239340334209D009
:102460002268526912F0800F04D0BB60636D43F0A4
:1024700002036365E26D04239340334209D022686E
:10248000126812F0020F04D0BB60636D43F00403C6
:102490006365E26D10239340334224D022681268B2
:1024A00012F0080F1FD0BB6023681A6812F4802F47
:1024B0000DD01B6813F4002F04D1236C9BB1204670
:1024C000984710E0A36C73B1204698470BE01A6858
:1024D00012F4807F03D11A6822F008021A60236C7C
:1024E0000BB120469847E26D20239340334255D0EC
:1024F0002268126812F0100F50D0BB6094F835308B
:10250000DBB2052B0ED023681A6812F4802F33D06B
:102510001B6813F4002F2AD1636C002B3ED0204699
:1025200098473BE02268136823F016031360226883
:10253000536923F080035361236CA3B122681368AD
:1025400023F008031360E26D3F239340BB60012337
:1025500084F83530002384F83430236D002B3FD0CD
:10256000204698473CE0A36C002BE7D1EBE7E36BF8
:10257000A3B12046984711E01A6812F4807F09D170
:102580001A6822F010021A60012384F83530002303
:1025900084F83430E36B0BB120469847636DFBB190
:1025A000636D13F0010F17D0052384F835302268CE
:1025B000136823F001031360019B01330193AB42C5
:1025C00004D823681B6813F0010FF5D1012384F8A8
:1025D0003530002384F83430E36C0BB12046984743
:1025E00003B0F0BD08000020B5814E1B074AD36838
:1025F00023F4E0631B041B0C000200F4E0600343BF
:1026000043F0BF6343F40033D360704700ED00E054
:1026100000B5194BDB68C3F30223C3F1070CBCF10F
:10262000040F28BF4FF0040C03F1040EBEF1060F97
:1026300018D9033B4FF0FF3E0EFA0CFC21EA0C01C7
:1026400099400EFA03F322EA0303194300280BDB37
:102650000901C9B200F1604000F5614080F8001343
:102660005DF804FB0023E5E700F00F000901C9B2A3
:10267000024B1954F4E700BF00ED00E014ED00E058
:10268000002807DB00F01F02400901239340024AA3
:1026900042F82030704700BF00E100E00138B0F19F
:1026A000807F0BD24FF0E0235861054AF02182F879
:1026B00023100020986107221A617047012070479B
:1026C00000ED00E010B504460E4B18784FF47A7315
:1026D000B3FBF0F30C4A1068B0FBF3F0FFF7DEFF3A
:1026E00068B90F2C01D901200AE0002221464FF0E1
:1026F000FF30FFF78DFF054B1C60002000E001203C
:1027000010BD00BF000000200800002004000020D1
:1027100008B50B4B1A6842F400721A601A6842F44A
:1027200080621A601A6842F480721A600320FFF710
:102730005DFF0020FFF7C6FFFEF76AFE002008BD20
:10274000003C0240034A1168034B1B780B441360A2
:10275000704700BF9402002000000020014B186861
:10276000704700BF9402002038B50446FFF7F6FF1B
:102770000546B4F1FF3F02D0044B1B781C44FFF721
:10278000EDFF401BA042FAD338BD00BF000000207F
:1027900030B4036A23F001030362036A4268846968
:1027A00024F073040D682C4323F0020C8B6843EA79
:1027B0000C03104DA84203D005F58065A84205D151
:1027C00023F00803CD682B4323F00403094DA842EE
:1027D00003D005F58065A84205D122F440724D6909
:1027E0002A438D692A43426084614A6842630362D6
:1027F00030BC70470000014030B4036A23F480739A
:102800000362036A4268C46924F0730C0C6844EAEA
:102810000C0523F400738C6843EA0423114CA04296
:1028200003D004F58064A04206D123F40063CC6891
:1028300043EA042323F480630A4CA04203D004F546
:102840008064A04207D122F440524C6942EA04124B
:102850008C6942EA04124260C5614A68C26303623D
:1028600030BC70470000014030B4036A23F4805349
:102870000362036A4468C26922F4E6420D6842EAD0
:10288000052223F400538D6843EA0533094DA8421D
:1028900003D005F58065A84204D124F480444D6935
:1028A00044EA85144460C2614A680264036230BC31
:1028B000704700BF00000140704770477047704785
:1028C000704710B5044603681A6912F0020F11D060
:1028D000DA6812F0020F0DD06FF002021A610123C4
:1028E000037703689B6913F0030F70D0FFF7E6FFCF
:1028F0000023237723681A6912F0040F12D0DA68D4
:1029000012F0040F0ED06FF004021A610223237735
:1029100023689B6913F4407F5FD02046FFF7CEFF0A
:102920000023237723681A6912F0080F12D0DA689F
:1029300012F0080F0ED06FF008021A6104232377FB
:102940002368DB6913F0030F4ED02046FFF7B6FF74
:102950000023237723681A6912F0100F12D0DA6867
:1029600012F0100F0ED06FF010021A6108232377B7
:102970002368DB6913F4407F3DD02046FFF79EFFBC
:102980000023237723681A6912F0010F03D0DA6855
:1029900012F0010F36D123681A6912F0800F03D0AC
:1029A000DA6812F0800F34D123681A6912F0400FF0
:1029B00003D0DA6812F0400F32D123681A6912F09E
:1029C000200F03D0DA6812F0200F30D110BDFFF7CE
:1029D00074FF2046FFF773FF8AE72046FFF76DFF7D
:1029E0002046FFF76CFF9BE72046FFF766FF204677
:1029F000FFF765FFACE72046FFF75FFF2046FFF7D4
:102A00005EFFBDE76FF001021A612046FFF754FF39
:102A1000C1E76FF080021A61204600F01EFAC3E79A
:102A20006FF040021A612046FFF74AFFC5E76FF0DA
:102A300020021A61204600F00FFAC7E70368304A07
:102A4000904212D0B0F1804F0FD0A2F57C4290425C
:102A50000BD002F58062904207D002F5806290426E
:102A600003D002F57842904203D123F070034A6804
:102A70001343234A90422AD0B0F1804F27D0A2F5C9
:102A80007C42904223D002F5806290421FD002F532
:102A9000806290421BD002F57842904217D002F536
:102AA0007052904213D002F5806290420FD002F52E
:102AB000806290420BD0A2F59832904207D002F586
:102AC0008062904203D002F58062904203D123F4E9
:102AD0004073CA68134323F080034A6913430360B9
:102AE0008B68C3620B688362054B984203D003F581
:102AF0008063984201D10B690363012343617047EE
:102B00000000014040B310B5044690F83D30F3B1E9
:102B1000022384F83D30214651F8040BFFF78EFF65
:102B2000012384F8463084F83E3084F83F3084F83E
:102B3000403084F8413084F8423084F8433084F8DF
:102B4000443084F8453084F83D30002010BD80F8D2
:102B50003C3000F095FCDBE70120704730B4036A9D
:102B600023F010030362036A4468826922F4E64298
:102B70000D6842EA052223F020038D6843EA05131D
:102B8000114DA84203D005F58065A84206D123F077
:102B90008003CD6843EA051323F040030A4DA842A1
:102BA00003D005F58065A84207D124F440644D693F
:102BB00044EA85048D6944EA8504446082614A6878
:102BC0008263036230BC70470000014038B590F862
:102BD0003C30012B66D004460D46012380F83C3082
:102BE0000C2A5AD8DFE802F0075959591B5959598C
:102BF0003059595944000068FFF7CAFD22689369AB
:102C000043F0080393612268936923F004039361FE
:102C10002268936929690B43936100203EE00068B4
:102C2000FFF79CFF2268936943F400639361226875
:102C3000936923F48063936122689369296943EA65
:102C400001239361002029E00068FFF7D5FD226889
:102C5000D36943F00803D3612268D36923F00403E6
:102C6000D3612268D36929690B43D361002015E041
:102C70000068FFF7F9FD2268D36943F40063D3616C
:102C80002268D36923F48063D3612268D3692969F8
:102C900043EA0123D361002000E00120002384F8EF
:102CA0003C3038BD0220FCE701F01F01012303FA8C
:102CB00001FC036A23EA0C030362036A02FA01F1CE
:102CC0000B4303627047000010B504460846002914
:102CD00042D194F83E30DBB2013B18BF0123002BF8
:102CE0006ED1002851D1022384F83E3001220146E2
:102CF0002068FFF7D9FF2368334A934203D002F5D7
:102D00008062934203D15A6C42F400425A642368B1
:102D10002D4A934249D0B3F1804F46D0A2F57C4270
:102D2000934242D002F5806293423ED002F5806227
:102D300093423AD002F57842934236D002F570526F
:102D4000934232D0A2F5943293422ED01A6842F0C8
:102D500001021A60002032E0042908D008290DD0B1
:102D600094F84130DBB2013B18BF0123B7E794F878
:102D70003F30DBB2013B18BF0123B0E794F840308D
:102D8000DBB2013B18BF0123A9E7042805D00828BE
:102D900007D0022384F84130A8E7022384F83F30AB
:102DA000A4E7022384F84030A0E79A6802F0070203
:102DB000062A07D01A6842F001021A60002010BDEE
:102DC0000120FCE70020FAE70000014090F83C30C9
:102DD000012B3DD010B4012380F83C30022380F851
:102DE0003D3003685A689C6822F0700C0A6842EA19
:102DF0000C025A600368174A93421AD0B3F1804F0D
:102E000017D0A2F57C42934213D002F58062934220
:102E10000FD002F5806293420BD002F578429342C4
:102E200007D002F57052934203D0A2F59432934238
:102E300004D124F080044A6814439C60012380F884
:102E40003D30002380F83C3018465DF8044B704755
:102E500002207047000001407047704738B50446B3
:102E60000268136923F44053C1680B4313618368FC
:102E70000269134342691343C2691A430168CB686C
:102E800023F4164323F00C031343CB600268536909
:102E900023F4407381690B4353610368314A9342C1
:102EA00006D002F58062934202D0FEF7A1FD01E058
:102EB000FEF7AEFDE369B3F5004F29D000210318FA
:102EC00049411B1841F10001C90041EA5371DB007F
:102ED000181863684FEA83024FEA937341F10001C7
:102EE000FDF782FE204DA5FB00325109642303FB50
:102EF00011031B013233A5FB03235B0903F0F0022E
:102F000002EB011203F00F03216813448B6038BDFC
:102F10000023021843EB0301121841F10001C9001C
:102F200041EA5271D200101841F100016268921812
:102F30005B41FDF759FE0C4DA5FB0032510964239E
:102F400003FB1103DB003233A5FB03235B095A00AB
:102F500002F4F87202EB011203F007032168134434
:102F60008B60D4E7001001401F85EB512DE9F84339
:102F700005460F4616469946DDF820802C682468E1
:102F800037EA04030CBF4FF0010C4FF0000CB445BE
:102F90002DD1B8F1FF3FF1D0B8F1000F05D0FFF708
:102FA000DDFBA0EB09004045E8D92A6802F10C03DB
:102FB00053E8003F23F4D0730C3242E8003100297B
:102FC000F3D12A6802F1140353E8003F23F0010310
:102FD000143242E800310029F3D1202385F83D3036
:102FE00085F83E30002385F83C30032000E00020C7
:102FF000BDE8F88358B310B5044690F83D300BB3E4
:10300000242384F83D302268D36823F40053D3602E
:103010002046FFF723FF2268136923F490431361CE
:103020002268536923F02A0353612268D36843F46A
:103030000053D36000202064202384F83D3084F8BE
:103040003E3010BD80F83C30FEF76CF9D8E7012027
:1030500070472DE9F04182B01E4690F83D30DBB25A
:10306000202B54D104460D469046002953D0002A07
:1030700053D090F83C30012B51D0012380F83C30E4
:1030800000230364212380F83D30FFF767FB0746E8
:10309000A4F82480A4F82680A368B3F5805F05D047
:1030A0004FF00008002384F83C3012E0236913B18C
:1030B0004FF00008F6E7A8460025F3E738F8023B92
:1030C0002268C3F308035360E28C92B2013A92B2D1
:1030D000E284E38C9BB273B100963B4600228021D0
:1030E0002046FFF743FFE0B9002DE7D015F8012B8C
:1030F00023685A60E8E700963B46002240212046BC
:10310000FFF734FF78B9202384F83D3000E0022037
:1031100002B0BDE8F0810120FAE70120F8E70220C3
:10312000F6E70320F4E70320F2E70000034AD2F8B1
:10313000883043F47003C2F88830704700ED00E037
:1031400000B585B0002300930193029303931648C2
:10315000164A0260436083600361037680F8203082
:103160004FF08052C2624FF0E0628262C36001237E
:10317000C36180F83030436100F002FB68B904237A
:10318000009301230193002302936946064800F04F
:10319000DFFC28B905B05DF804FBFDF7B4FEEEE7EF
:1031A000FDF7B1FEF6E700BF9802002000200140C5
:1031B00000B585B000230093019302930393154853
:1031C000154A0260436083600361037680F8203013
:1031D0004FF08052C2624FF0E0628262C36001230E
:1031E000C36180F83030436100F0CAFA60B901234E
:1031F00000930193002302936946064800F0A8FC5F
:1032000028B905B05DF804FBFDF77DFEEFE7FDF79B
:103210007AFEF6E7E00200200021014000B585B00B
:10322000002300930193029303931548154A02600B
:10323000436083600361037680F820304FF0805252
:10324000C2624FF0E0628262C3600123C36180F812
:103250003030436100F094FA60B9002300930122FA
:10326000019202936946064800F072FC28B905B045
:103270005DF804FBFDF747FEEFE7FDF744FEF6E7D8
:10328000280300200022014030B58DB00446002301
:103290000793089309930A930B9303686D4A93422B
:1032A00008D06D4A934249D06C4A934200F08C801A
:1032B0000DB030BD00250195694B5A6C42F4807207
:1032C0005A645A6C02F480720192019A02951A6B48
:1032D00042F001021A631B6B03F001030293029B8D
:1032E000102307930323089307A95E48FEF782FE85
:1032F0005D485E4B036045608560C5604FF4806348
:1033000003614FF4006343614FF4005383614FF452
:103310008073C36105624562FEF7DEFF58B9524B08
:10332000A3639C63002211461220FFF771F912205B
:10333000FFF7A6F9BCE7FDF7E6FDF0E700250395EA
:10334000474B5A6C42F400725A645A6C02F4007291
:103350000392039A04951A6B42F001021A631B6BE5
:1033600003F001030493049B0223079303230893B0
:1033700007A93C48FEF73EFE3D483E4B03604FF038
:10338000007343608560C5604FF4806303614FF450
:10339000006343614FF4005383614FF48073C36152
:1033A00005624562FEF798FF58B9314BA3639C63F1
:1033B000002211461220FFF72BF91220FFF760F9C7
:1033C00076E7FDF7A0FDF0E700250595244B5A6C44
:1033D00042F480625A645A6C02F480620592059A43
:1033E00006951A6B42F001021A631B6B03F001038E
:1033F0000693069B012307930323089307A9194803
:10340000FEF7F8FD1C481D4B03604FF080634360DE
:103410008560C5604FF4806303614FF400634361CE
:103420004FF4005383614FF48073C36105624562BA
:10343000FEF752FF58B9104BA3639C63002211465C
:103440001220FFF7E5F81220FFF71AF930E7FDF731
:103450005AFDF0E700200140002101400022014018
:103460000038024000000240700300201064024057
:10347000D003002040640240300400202864024051
:1034800010B588B000230393049305930693079324
:103490000268174B9A4201D008B010BD0024019475
:1034A00003F50D331A6C42F002021A641A6C02F032
:1034B00002020192019A02941A6B42F004021A630A
:1034C0001B6B03F004030293029B4023039302232C
:1034D0000493079303A90748FEF78CFD2246214673
:1034E0001D20FFF795F81D20FFF7CAF8D4E700BFAD
:1034F000000400400008024030B589B00023039367
:1035000004930593069307930268184B9A4201D0DF
:1035100009B030BD0025019503F50D331A6B42F05B
:1035200002021A631A6B02F002020192019A0295DA
:103530001A6B42F004021A631B6B03F0040302933C
:10354000029B022403940494079403A90848FEF7FD
:1035500051FD4FF4C07303930494059506950794A9
:1035600003A90448FEF746FDD2E700BF000400406F
:10357000000402400008024000B58BB0002308930D
:10358000099301930293039304930593069307937E
:103590002C482D4A026043602022826040F2FF12D4
:1035A000C26003618361FFF7ADFA002837D10023C1
:1035B0000893099308A92348FFF708FC002831D194
:1035C000602301934FF4FF7302930022039205924C
:1035D00001A91C48FFF7FAFA38BB4FF48073029335
:1035E00004220DEB02011748FFF7F0FA00BB4FF47D
:1035F000FF730293082201A91248FFF7E7FAD0B936
:103600004FF4807302930C2201A90E48FFF7DEFAF3
:10361000A0B90C48FFF770FF0BB05DF804FBFDF795
:1036200072FCC4E7FDF76FFCCAE7FDF76CFCD4E75A
:10363000FDF769FCDBE7FDF766FCE1E7FDF763FCFE
:10364000E7E700BF90040020000400404A4B5A689E
:1036500022F440325A605A6841680A435A6002684C
:10366000536823F48073536002685368016943EA26
:10367000012353600268536823F04073536002686B
:10368000536881680B4353600268936823F40063B6
:10369000936002689368C1680B439360826A374BFA
:1036A0009A4257D00268936823F07063936002686F
:1036B0009368816A0B4393600268936823F04053D8
:1036C000936002689368C16A0B43936002689368D1
:1036D00023F00203936002689368017E43EA41038A
:1036E000936090F82030002B3FD00268536843F479
:1036F000006353600268536823F4604353600168B9
:103700004B68426A013A43EA42334B600268D36A2B
:1037100023F47003D3620168CB6AC269013A43EAB9
:103720000253CB620268936823F4007393600268CB
:10373000936890F8301043EA4123936002689368DD
:1037400023F48063936002689368416943EA8123AC
:10375000936070470268936823F070639360026817
:10376000936823F040539360B0E70268536823F4F2
:1037700000635360CAE700BF002301400100000F4F
:1037800038B310B50446036C43B1236C13F0100F2B
:103790000BD00120002384F83C3010BDFFF774FDEE
:1037A0000023636484F83C30EFE7236C23F48853F0
:1037B00023F0020343F0020323642046FFF746FF91
:1037C00000206064236C23F0030343F001032364AF
:1037D000E0E701207047000010B582B013460022D8
:1037E000019290F83C20012A00F0AE8004460122AC
:1037F00080F83C200268906810F0010F13D19068A7
:1038000040F001009060534A1068534AA2FB002028
:10381000800C00EB4000019002E00198013801901B
:1038200001980028F9D12268906810F4807F03D0B5
:10383000906820F4807090602268906810F0010F0A
:1038400077D0206C20F4E06020F0010040F480701C
:103850002064526812F4806F05D0226C22F440522A
:1038600042F480522264226C12F4805F36D0626C83
:1038700022F006026264002284F83C20A26B3748E2
:10388000D063A26B36481064A26B3648D0642268BD
:103890006FF0220010602068426842F0806242604F
:1038A0002068826842F48072826020680A4600F1D3
:1038B0004C01A06BFEF776FD2B4B5B6813F01F0FDE
:1038C00027D12368294A934211D002F5807293428E
:1038D00007D0274A934214D0002033E000226264CC
:1038E000C9E702F50072526812F01F0FF1D19A6811
:1038F00012F0405F2AD19A6842F080429A6000201C
:1039000020E002F58072526812F0100FEFD0002014
:1039100018E02368154A934201D0002012E09A680B
:1039200012F0405F14D19A6842F080429A60002001
:1039300008E0236C43F010032364636C43F001033D
:103940006364002002B010BD0220FBE70020F9E70D
:103950000020F7E70800002083DE1B43DF3A000861
:1039600079390008C93A00080023014000200140CD
:10397000002201407047704708B5806BFFF7FBFFDE
:1039800008BD7047704770B5044603681E685D68DF
:1039900016F0020F2FD005F0200262B3026C12F075
:1039A000100F03D1026C42F4007202649A6812F0A4
:1039B000405F19D1227EBAB9DA6A12F4700F03D0CF
:1039C0009A6812F4806F0FD15A6822F020025A6070
:1039D000236C23F480732364236C13F4805F03D17E
:1039E000236C43F0010323642046FFF7C3FF2368E1
:1039F0006FF012021A6005F0800316F0040F37D042
:103A0000002B35D0236C13F0100F03D1236C43F43B
:103A10000053236423689A6812F4401F21D19A6BE3
:103A200012F4401F03D09A6812F4806F19D15A68BB
:103A300012F4806F15D19A6812F0405F11D1227E86
:103A40007AB95A6822F080025A60236C23F48053BA
:103A50002364236C13F4807F03D1236C43F00103B0
:103A60002364204600F04AF923686FF00C021A60C4
:103A700005F0400316F0010F05D023B123681B6841
:103A800013F0010F06D105F0806516F0200F00D06D
:103A900065B970BD236C43F4803323642046FFF77F
:103AA00070FF23686FF001021A60ECE7636C43F06B
:103AB0000203636423686FF020051D602046FFF752
:103AC00061FF23681D60E4E708B5806B4023036451
:103AD000436C43F004034364FFF754FF08BD08B58B
:103AE0000346806B026C12F0500F25D1036C43F437
:103AF0000073036403689A6812F0405F19D1027E74
:103B0000BAB9DA6A12F4700F03D09A6812F4806FAF
:103B10000FD15A6822F020025A60036C23F480739C
:103B20000364036C13F4805F03D1036C43F001035F
:103B30000364FFF71FFF08BD026C12F0100F04D1E1
:103B4000826BD26C18469047F5E7FFF71BFFF2E750
:103B500030B482B00023019390F83C30012B00F088
:103B6000C080012380F83C300B68092B41D90468E0
:103B7000E2689BB203EB43031E3B4FF0070C0CFAC9
:103B800003F322EA0303E3600468E2680B8803EBB3
:103B900043031E3B8D6805FA03F31343E3604B6850
:103BA000062B3DD80468626B03EB8303053B4FF0A3
:103BB0001F0C0CFA03F322EA030363630468626BCD
:103BC0004B6803EB8303053BB1F800C00CFA03F329
:103BD000134363630268444B9A4251D00268424BDC
:103BE0009A425AD0002380F83C30184602B030BCCC
:103BF0007047046822699BB203EB43034FF0070C44
:103C00000CFA03F322EA03032361046822690B8898
:103C100003EB43038D6805FA03F313432361BEE707
:103C20000C2B16D805682A6B03EB8303233B1F2458
:103C300004FA03F322EA03032B6305682A6B4B683B
:103C400003EB8303233B0C8804FA03F313432B6336
:103C5000C0E70568EA6A03EB8303413B1F2404FACB
:103C600003F322EA0303EB620568EA6A4B6803EB9D
:103C70008303413B0C8804FA03F31343EB62A9E787
:103C80000B68122BAAD1194B5A6822F400025A6011
:103C90005A6842F480025A60A0E70B68144A9342C3
:103CA00001D0112B9ED1114B5A6822F480025A6028
:103CB0005A6842F400025A600A680D4B9A4291D148
:103CC0000C4B1B680C4AA2FB03239B0C03EB8303E6
:103CD0005B000193019B002B84D0019B013B01936E
:103CE000F8E7022082E700BF0020014000230140E6
:103CF000120000100800002083DE1B437047000004
:103D000010B582B000240194114B1A6B42F480026A
:103D10001A631B6B03F480030193019B2246214627
:103D20003820FEF775FC3820FEF7AAFC2246214613
:103D30003920FEF76DFC3920FEF7A2FC2246214611
:103D40003A20FEF765FC3A20FEF79AFC02B010BD5F
:103D500000380240DFF834D00D480E490E4A0023E7
:103D600002E0D458C4500433C4188C42F9D30B4A2F
:103D70000B4C002301E013600432A242FBD3FFF797
:103D8000D5F900F011F8FDF715F970470000022091
:103D900000000020DC010020EC700008DC010020A5
:103DA000EC040020FEE7000070B50D4D0D4C641BC7
:103DB000A4100026A64209D10B4D0C4C02F054FF72
:103DC000641BA4100026A64205D170BD55F8043B23
:103DD00098470136EEE755F8043B98470136F2E77D
:103DE000E4700008E4700008E4700008E87000085F
:103DF00002440346934200D1704703F8011BF9E7E0
:103E00002DE9FF4755EC104B002D0E4619462B4669
:103E1000BBBF05F100431D4600232D230B700D9BF6
:103E2000DDF830A0914623F02008BCBF224614469E
:103E3000B8F1460F05D0B8F1450F00D10136022187
:103E400000E0032103AB019302AB009345EC104B60
:103E50005346324600F0ECFCB8F1470F074602D15A
:103E600019F0010F22D0B8F1460F07EB060910D167
:103E70003B78302B0AD10022002320462946FCF74C
:103E800043FE18B9C6F10106CAF80060DAF800303E
:103E900099440022002320462946FCF735FE08B14C
:103EA000CDF80C903022039B4B4507D3039B0E9A11
:103EB000DB1B3846136004B0BDE8F087591C039142
:103EC0001A70F0E7F7B503460029B8BF494203F876
:103ED000022BB4BF2D222B22092942702ADD0DF1BD
:103EE0000704A4460A27A6460A4691FBF7F607FBF5
:103EF00016153035632A04F1FF340EF8015C3146A3
:103F0000F1DC3031AEF1020504F8011C441C2946F5
:103F100061450AD30DF10902A2EB0E02654588BF87
:103F200000221344181A03B0F0BD11F8012B04F855
:103F3000012FEDE7302330318370C170031DF1E7AD
:103F40002DE9F04F2DED028B8DB00C46DDF8608031
:103F500016461F46054601F059FAD0F800A0504613
:103F6000FCF756F900230A9323680593D8F800302C
:103F700094F818B0073323F0070303F10802C8F8D8
:103F80000020D3E90023C4E91223D4E9128929F0DF
:103F900000430793CDF8188008EE100A9F4BDDE927
:103FA00006014FF0FF32FCF7E1FD88BBDDE90601B9
:103FB0009A4B4FF0FF32FCF7BBFD48BB00220023B9
:103FC00040464946FCF7AAFD10B12D2384F8433042
:103FD000934B9448BBF1470F94BF98468046032308
:103FE0002361059B23F0040222604FF00009009733
:103FF00033460BAA2146284600F0D8F9013040F09C
:1040000090804FF0FF300DB0BDEC028BBDE8F08F1B
:1040100042464B4640464946FCF7A8FD40B14B4658
:10402000002BBCBF2D2384F843307F487F4BD1E762
:1040300063680BF0DF0206925A1C3FD106236360CF
:10404000059B616843F48062002303930AABCDE9CA
:1040500001B309AB49EC108B009322600DF12303EF
:104060002846FFF7CDFE069B0999472B804608D1CD
:10407000C81C02DB6368994241DDABF1020B5FFAB9
:104080008BFBBBF1650F20D801395A4604F1500073
:104090000991FFF717FF0A9A1318012A8146236135
:1040A00002DC2268D20701D5013323619DF8233059
:1040B000002B9CD02D2384F8433098E7069A472A9A
:1040C000BED1002BBCD10123B9E7BBF1660F18D1DB
:1040D000002963680BDD216113B92268D00702D57E
:1040E00001330B442361A1654FF00009DEE713B9EA
:1040F0002268D20701D50233F4E70123F2E74FF03B
:10410000670B0A9B994205DB23682161D807EAD532
:104110004B1CE7E70029D4BFC1F10202012213447E
:10412000E0E723685A0507D423694246314628460A
:10413000B84701302CD164E7BBF1650F40F2E08055
:10414000D4E9120100220023FCF7DEFC002834D061
:10415000374A012331462846B84701303FF451AF72
:10416000DDE909239A4202DB2368D80710D518EE4F
:10417000103A524631462846B84701303FF441AF25
:104180004FF0000804F11A090A9B013B434509DC82
:1041900023689B0700F10581E0680B9B9842B8BF3C
:1041A000184630E701234A4631462846B8470130D1
:1041B0003FF427AF08F10108E6E7099B002B39DC43
:1041C0001B4A012331462846B84701303FF419AF56
:1041D000DDE90923134302D12368D907D8D518EEA6
:1041E000103A524631462846B84701303FF409AFED
:1041F0004FF0000904F11A0A099B5B424B4501DCB0
:104200000A9B92E70123524631462846B8470130BF
:104210003FF4F7AE09F10109EEE700BFFFFFEF7FC2
:10422000BC6C0008C06C0008C86C0008C46C0008B6
:10423000CC6C00080A9AA36D9A42A8BF1A46002ABD
:10424000914637DC4FF0000B29EAE97904F11A02B4
:10425000A36D0593A3EB09035B4533DCDDE909237B
:104260009A423BDB2368DA0738D40A9B059A0999FE
:104270009A1AA3EB01099145A8BF9146B9F1000F25
:1042800035DC4FF0000829EAE97904F11A0ADDE982
:1042900009239B1AA3EB090343457FF779AF012359
:1042A000524631462846B84701303FF4AAAE08F1DD
:1042B0000108ECE71346314642462846B84701302C
:1042C000C0D19EE60123314628460592B847013009
:1042D0003FF497AE059A0BF1010BB9E718EE103ACF
:1042E000524631462846B8470130BED189E6059A84
:1042F0004B46424431462846B8470130C1D180E69A
:104300000A9A012A01DCDB0738D5012342463146EF
:104310002846B84701303FF474AE18EE103A5246C2
:1043200031462846B84701303FF46BAED4E912015C
:1043300000220023FCF7E8FBD8B90A9B08F1010230
:10434000013B31462846B84701300ED159E60123DA
:10435000524631462846B84701303FF452AE08F184
:1043600001080A9B013B4345F1DC4B4604F1500236
:10437000DCE64FF0000804F11A0AF2E70123424696
:10438000DFE701234A4631462846B84701303FF46B
:1043900038AE08F10108E3680B995B1A4345F0DC7D
:1043A000FAE64FF0000804F11909F4E72DE9F047A7
:1043B000164699468A680B69DDF820809342B8BF9B
:1043C0001346336091F8432007460C460AB1013387
:1043D00033602368990642BF33680233336025682F
:1043E00015F0060506D104F1190AE36832689B1A34
:1043F000AB4226DC94F84320131E226818BF012329
:1044000092062BD404F1430249463846C047013096
:104410001ED02368E568326803F00603042B08BF4A
:10442000AD1AA36822690CBF25EAE5750025934201
:10443000C4BF9B1AED1800261A34B5421AD10020C9
:1044400008E00123524649463846C047013003D1AF
:104450004FF0FF30BDE8F0870135C6E7E1185A1C80
:10446000302081F84300224494F8451082F843102C
:104470000233C7E70123224649463846C047013088
:10448000E6D00136D9E700002DE9FF470F7E0C9DED
:10449000782F914680460C469A4601F1430207D890
:1044A000622F0AD8002F00F0D880582F00F0A38088
:1044B00004F1420584F842703AE0A7F16303152B3A
:1044C000F6D801A151F823F0214500083545000830
:1044D000B1440008B1440008B1440008B1440008E8
:1044E00035450008B1440008B1440008B144000853
:1044F000B14400084146000865450008234600080D
:10450000B1440008B144000863460008B144000803
:1045100065450008B1440008B14400082B46000876
:104520002B681A1D1B682A6004F1420584F842308A
:104530000123A3E020682968060601F104030AD5D7
:104540000E682B60002E03DA2D23764284F8433068
:104550005E480A2319E00E682B6010F0400F18BF68
:1045600036B2EFE72B682068191D2960010601D5D6
:104570001E6802E04606FBD51E8854486F2F0CBF0C
:1045800008230A23002184F843106568A560002DE4
:10459000A2BF216821F0040121600EB9002D4DD089
:1045A0001546B6FBF3F103FB1167C75D05F8017D06
:1045B0003746BB420E46F4D9082B0BD12368DE07E1
:1045C00008D5236961689942DEBF302305F8013CB4
:1045D00005F1FF35521B2261CDF800A04B4603AA1E
:1045E00021464046FFF7E2FE01304CD14FF0FF304C
:1045F00004B0BDE8F087354881F845702968236824
:1046000051F8046B29601D0614D5DF0744BF43F041
:10461000200323601EB9236823F0200323601023A6
:10462000B0E7236843F0200323607823284884F808
:104630004530E3E7590648BFB6B2E6E71546BBE7A3
:104640002B6826686169181D286035061B6801D52E
:10465000196002E07006FBD519800023236115461E
:10466000BAE72B681A1D2A601D6862680021284677
:10467000FBF7D6FD08B1401B60606368236100232F
:1046800084F84330A8E723692A4649464046D04784
:104690000130ABD023689B0713D4E068039B98429A
:1046A000B8BF1846A4E70123324649464046D047E2
:1046B00001309BD00135E36803995B1AAB42F2DC11
:1046C000EBE7002504F11906F5E700BFCE6C000802
:1046D000DF6C00080EB400B59CB01DAB02900690D4
:1046E0006FF00041094807910491094953F8042BE0
:1046F00005910068019302A901F078FB029B00225A
:104700001A701CB05DF804EB03B070470C00002079
:104710000802FFFF2DE9F74F03690C69A342074622
:10472000C0F28180013C01F1140800F1140505EB91
:104730008403019358F8243055F8242001339A4219
:104740004FEA840B08EB8409B2FBF3F631D34FF048
:10475000000E4046AC46F24650F8042B93B206FBDE
:1047600003E34FEA134E9BB2AAEB0303DCF800A06D
:10477000120C13FA8AF306FB02E20093009B4FEA45
:10478000124E92B2C2EB1A4202EB2342BDF8003045
:10479000814543EA02434CF8043B4FEA224ADBD20C
:1047A00055F80B302BB9019B043B9D421A462ED382
:1047B0003C61384601F0C6F8002824DB0136284663
:1047C0004FF0000C58F8042BD0F800E093B2ACEB9B
:1047D0000303120C13FA8EF3C2EB1E4202EB2342C8
:1047E0009BB243EA0243C14540F8043B4FEA224CE6
:1047F000E8D255F8242005EB840322B9043B9D42FE
:104800001A460AD33C61304603B0BDE8F08F126807
:10481000043B002ACCD1013CC7E71268043B002AC4
:10482000F0D1013CEBE70020EEE7000000000000C3
:104830002DE9F04F2DED048B57EC106B93B0456ACA
:10484000DDF88080069110EE10AA044609920C93C0
:10485000BB4675B9102000F0DDFD0246606220B94C
:10486000A74BEA21A74801F0D1FBC0E9015505603B
:10487000C560636A196851B15A684A600123934060
:104880008B60204600F01CFE636A00221A603B1E0B
:10489000AABF002323F0004BC8F800309A4BBCBFDE
:1048A0000122C8F8002033EA0B031BD10C9A42F214
:1048B0000F731360CBF31303334300F09285219BF6
:1048C00063B9924B22E0924B01930833219A136013
:1048D000019813B0BDEC048BBDE8F08F8B4B0193B6
:1048E0000333F3E70022002350465946FCF70CF946
:1048F0004BEC19AB804658B10C9A01231360219BF5
:10490000002B00F06B8583481860431E0193DFE79E
:104910004BEC10AB10AA11A9204601F0B9F8CBF36B
:104920000A5508EE100A002D00F0848019EE903A26
:10493000C3F3130343F07F57564647F44017A5F2DD
:10494000FF35CDF83880744B002230463946FBF7EE
:10495000BBFC65A3D3E90023FBF76EFE64A3D3E998
:104960000023FBF7B3FC064628460F46FBF7FAFD8B
:1049700061A3D3E90023FBF75FFE02460B463046F6
:104980003946FBF7A3FC06460F46FCF705F9002263
:104990000090002330463946FCF7C0F850B100982B
:1049A000FBF7E0FD32463B46FCF7AEF810B9009B42
:1049B000013B0093009B162B5AD8009A574B03EBF0
:1049C000C203D3E9002351EC190BFCF7A7F8002828
:1049D00050D0009B013B009300230B93109B5D1B69
:1049E0006B1E059345BFC5F101030493002300230B
:1049F0004CBF05930493009B002B3DDB059B009A65
:104A00000A921344059300230793069B092B00F297
:104A10008980052BC4BF043B0693069BA3F10203C8
:104A2000CCBF00250125032B00F28780DFE803F0CF
:104A30002D3A3859DDE910531D4405F23243202B3D
:104A4000C1BFC3F1400305F212400BFA03F326FA8B
:104A500000F0DABFC3F1200306FA03F01843FBF7B6
:104A600071FD01230646A1F1F877013D0E936AE737
:104A70000123B2E70B90B1E7049B009A9B1A0493C1
:104A80005342079300230A93BFE700230893099B2F
:104A9000002B55DC0123CDE902331A4609920CE0C4
:104AA0000123F3E70023099A0893009B1344029320
:104AB0000133012B0393B8BF0123606A00224260D7
:104AC000042202F114069E4241683DD9204600F0BE
:104AD000B7FC019000283BD1114B02464FF4D57131
:104AE000C0E60123DFE700BF61436F63A787D23FC2
:104AF000B3C8608B288AC63FFB799F501344D33FCD
:104B0000FD6C0008146D00080000F07FF96C0008CF
:104B1000F06C0008CD6C00080000F83F506E0008F3
:104B2000926D000801250023069308954FF0FF338E
:104B3000CDE9023300221223B0E701230893F5E701
:104B4000099BCDE90233B8E7013141605200B8E773
:104B5000636A019A1A60039B0E2B00F29D80002D60
:104B600000F09A80009B002B32DDB74A03F00F0360
:104B700002EBC303D3E90089009BD8054FEA231752
:104B800016D5B24B51EC190BD3E90823FBF77EFE87
:104B900007F00F0782468B460325AC4E57B94246B5
:104BA0004B4650465946FBF771FE82468B4628E03D
:104BB0000225F2E7F90708D540464946D6E9002321
:104BC000FBF73AFD0135804689467F100836E5E758
:104BD00000F09B80009B9D4F5E429B4B06F00F02B6
:104BE00003EBC203D3E9002351EC190BFBF724FDBF
:104BF000361182468B4600230225002E7AD1002BE7
:104C0000D3D10B9B002B00F08280914B00225046A9
:104C10005946FBF783FF002879D0039B002B76D001
:104C2000029B002B36DD009B504659465F1E00223A
:104C3000884BFBF701FD029E82468B4601352846D4
:104C4000FBF790FC52465B46FBF7F6FC824B0022DA
:104C5000FBF73CFBD046D9468246A1F1507B002EA3
:104C600058D17E4B002240464946FBF72DFB524669
:104C70005B4680468946FBF76FFF002840F095822F
:104C800052460BF1004340464946FBF747FF0028D8
:104C900040F089825BEC19AB119B002BC0F248817C
:104CA000009A0E2A00F34481674B03EBC203D3E959
:104CB0000089099B002B80F2D580039B002B00F319
:104CC000D18040F06F82654B002240464946FBF799
:104CD000B3FC52465B46FBF735FF039E3746002880
:104CE00040F04582019D312305F8013B009B0133D3
:104CF000009340E2F20705D5D7E90023FBF79CFCBF
:104D0000013501237610083777E7022579E7009F00
:104D1000039E94E701994C4B31440D91089903EBA4
:104D2000C60353E90223002943D04D490020FBF775
:104D3000ADFD52465B46FBF7C7FA019D82468B46A6
:104D400049464046FBF728FF0646FBF70BFC0246A8
:104D50000B4640464946FBF7B7FA303605F8016B7B
:104D600052465B4680468946FBF7D8FE002863D151
:104D700042464B4636490020FBF7A6FA52465B46B0
:104D8000FBF7CCFE002840F0B5800D9B9D4281D002
:104D9000304B002250465946FBF74EFC2D4B8246C5
:104DA0008B46404649460022FBF746FC8046894632
:104DB000C6E750465946FBF73FFC0D9B019D0F93FC
:104DC00082468B4649464046FBF7E6FE0646FBF721
:104DD000C9FB303602460B4640464946FBF774FA9B
:104DE00005F8016B0D9B9D42804689464FF00002FD
:104DF00024D11B4B50465946FBF768FA02460B4636
:104E000040464946FBF7A8FE002873D152465B4650
:104E100013490020FBF758FA02460B464046494624
:104E2000FBF77CFE00283FF435AF0F9D6B1E0F9300
:104E300015F8013C302BF8D0009749E0054BFBF703
:104E4000FBFB80468946BDE7506E0008286E0008CF
:104E50000000F03F0000244000001C40000014400F
:104E60000000E03F019D56465F4642464B463046B5
:104E70003946FBF70BFDFBF78FFE8246FBF772FB13
:104E800042464B46FBF7D8FB02460B4630463946B6
:104E90000AF13006FBF718FA05F8016B019E039F33
:104EA000AE1BB74202460B4635D1FBF70FFA42461E
:104EB0004B4606460F46FBF74FFED0B942464B46DF
:104EC00030463946FBF720FE10B11AF0010F10D121
:104ED000204618EE101A00F0F3FA002300982B7009
:104EE0000C9B01301860219B002B3FF4F1AC1D603E
:104EF000EEE4009F2B461D4613F8012D392A06D1FA
:104F0000019A9A42F7D10199302201370A701A7832
:104F100001321A7090E7A64B0022FBF78DFB0022AE
:104F2000002306460F46FBF7EFFD00289DD0CFE794
:104F3000089A002A00F0D780069A012A00F3BA8066
:104F40000E9A002A00F0B28003F23343079E049DBC
:104F5000049A1A440492059A01211A4420460592A3
:104F600000F066FB0746002D0CDD059B002B09DDDC
:104F7000AB42049AA8BF2B46D21A0492059AED1AA6
:104F8000D31A0593079B1BB3089B002B00F0AF803F
:104F9000002E13DD39463246204600F009FC18EE9B
:104FA000102A01460746204600F058FB18EE101A5A
:104FB0008046204600F084FA08EE108A079B9A1B70
:104FC00006D018EE101A204600F0F2FB08EE100A88
:104FD0000121204600F02CFB0A9B002B064640F3E3
:104FE00088801A460146204600F0E2FB069B012B12
:104FF000064640F381804FF00008336906EB8303D7
:10500000186900F0C5FAC0F12000059B184410F0A3
:105010001F0000F09280C0F12003042B40F38A802F
:10502000C0F11C00049B03440493059B0344054406
:105030000593049B002B07DD18EE101A1A46204634
:1050400000F010FC08EE100A059B002B05DD314630
:105050001A46204600F006FC06460B9B002B6ED03D
:1050600018EE100A314600F06DFC002867DA009B4C
:10507000013B18EE101A00930A220023204600F08C
:1050800041FA089B08EE100A002B00F0B1810023C2
:1050900039460A22204600F035FA029B002B0746CB
:1050A00000F38E80069B022B51DC89E0109BC3F13C
:1050B00036034BE7039B5E1E079BB342BFBF079BB4
:1050C0000796F21A0A9BB6BF9B189E1B0A93039B76
:1050D000B8BF0026002BB7BFDDE90323DDE90335A8
:1050E0009D1A002334E7079E049D089F3BE7079A1B
:1050F00067E7069B012B18DCBAF1000F15D1CBF343
:10510000130393B92BF000431B0D1B0583B1049BC4
:1051100001330493059B013305934FF001080A9B6B
:10512000002B7FF46AAF01206FE74FF00008F6E72D
:105130009846F4E73FF47DAF18461C3072E7039BB6
:10514000002B37DC069B022B34DD039B0293029B72
:105150006BB931460522204600F0D4F901460646D7
:1051600018EE100A00F0EEFB00283FF7BBAD099BDC
:10517000019DDB4300934FF000083146204600F0CC
:105180009FF9002F3FF4A4AEB8F1000F05D0B84549
:1051900003D04146204600F093F93946204600F0FE
:1051A0008FF995E600263746E1E70097374699E5FF
:1051B00000002440089B002B00F0CA80039B029350
:1051C000002D05DD39462A46204600F04BFB0746F8
:1051D000B8F1000F5BD07968204600F031F9054640
:1051E00028B9874B024640F2EA21FFF73BBB3A69F8
:1051F0000232920007F10C010C3000F013F9012289
:105200002946204600F02EFB019B03F10109DDE950
:105210000123134405930AF00103B846049307469B
:10522000314618EE100AFFF775FA4146029000F178
:10523000300A18EE100A00F085FB3A46039031461A
:10524000204600F09BFBC26809F1FF3B054602BB0C
:10525000014618EE100A00F075FB0246294620466A
:10526000079200F02DF9DDE9063243EA0201049BC2
:105270000B434D460FD1BAF1390F2AD0039B002BB7
:1052800002DD029B03F1310A8BF800A075E7384676
:10529000BAE70122E2E7039B002B04DB06990B43EC
:1052A00004990B4322D1002AEEDD18EE101A0122D8
:1052B000204600F0D7FA314608EE100A00F042FB13
:1052C000002803DCE0D11AF0010FDDD0BAF1390F6C
:1052D000D7D139238BF800302B461D46013B15F8FA
:1052E000012C392A71D001321A7046E7002A07DDF5
:1052F000BAF1390FEDD00AF101038BF800303CE729
:10530000059B09F801AC994547D018EE101A002307
:105310000A22204600F0F6F8B84508EE100A4FF0D1
:1053200000034FF00A024146204606D100F0EAF899
:105330008046074609F1010972E700F0E3F83946B3
:10534000804600230A22204600F0DCF80746F1E7F9
:10535000039B0293019D18EE100A3146FFF7DAF91C
:1053600000F1300A019B05F801ABEA1A029B934257
:1053700009DD18EE101A00230A22204600F0C2F8B8
:1053800008EE100AE7E7029B002BC8BF1D46019BF1
:10539000D8BF01251D444FF0000818EE101A012255
:1053A000204600F05FFA314608EE100A00F0CAFA13
:1053B000002891DC02D11AF0010F8DD12B461D4639
:1053C00013F8012D302AFAD0D7E6019A9A4284D1F7
:1053D000009B0133009331231370CEE6094BFFF796
:1053E00095BA219B002B7FF46EAA074BFFF78EBA6C
:1053F000029B002BAEDC069B022B3FF7A8AEA9E771
:10540000926D0008CC6C0008F06C000800487047F2
:1054100060010020024B0146186800F017BC00BF75
:105420000C0000200A44914200F1FF3300D1704784
:1054300010B511F8014B03F8014F9142F9D110BD9D
:1054400070B5466A04460D4676B91020FFF7E2FFB4
:105450000246606220B9184B1848662100F0D6FD5C
:10546000C0E901660660C660666AF36883B1636A74
:10547000DB6853F82500B8B9012101FA05F6721D61
:105480009200204600F060FB60B1C0E901560EE0DA
:1054900021220421204600F057FB636AF060DB689C
:1054A000002BE4D1002070BD026843F825200023C2
:1054B000C0E90333F7E700BFFD6C0008A36D0008E7
:1054C00070B5466A05460C4676B91020FFF7A2FF74
:1054D0000246686220B9094B09488A2100F096FD0E
:1054E000C0E901660660C6603CB16B6A6268DB6851
:1054F00053F82210216043F8224070BDFD6C000873
:10550000A36D00082DE9F0410D6907460C461E46C3
:1055100001F1140C0020DCF8003099B202FB0161AB
:105520001E0C0B0C02FB063389B2013001EB034168
:1055300085424CF8041B4FEA1346ECDC0EB3A3681B
:10554000AB4219DC616838460131FFF779FF8046CC
:1055500028B902460C4B0D48B52100F057FD2269D1
:10556000023204F10C0192000C30FFF75BFF214680
:105570003846FFF7A5FF444604EB850301355E611D
:1055800025612046BDE8F081926D0008A36D0008FA
:10559000030C1B04D3B90004102310F07F4F04BF89
:1055A0000002083310F0704F04BF0001043310F004
:1055B000404F04BF80000233002805DB10F0804F0D
:1055C00003F1010308BF2023184670470023E4E7D6
:1055D000036813F0070201460BD0DA0723D49807BB
:1055E00049BF5B089B0801200B605CBF0B60022079
:1055F000704798B2A8B91B0C1020DAB20AB908306B
:105600001B0A1A0704BF1B0904309A0704BF9B0832
:105610000230DA0703D45B0800F1010005D00B600B
:1056200070471046E9E700207047202070470000CF
:1056300010B50C460121FFF703FF024628B9054BC0
:1056400005484FF4A07100F0E1FC012344610361BF
:1056500010BD00BF926D0008A36D00082DE9F04F4A
:1056600091460A69D9F810309A42B8BF0B460C46E9
:10567000BCBF4C4699462769D9F810A0A368616859
:1056800007EB0A06B34285B0B8BF0131FFF7D8FE79
:1056900030B90246444B454840F25D1100F0B6FC7B
:1056A00000F1140505EB86082B460022434521D363
:1056B00004F1140303EB870709F1140303EB8A02D7
:1056C00002923A1B153A22F00302043204F115014A
:1056D0008F4238BF04220192029A03939A420CD857
:1056E000002E03DD58F8043D002B5AD0066105B0AA
:1056F000BDE8F08F43F8042BD8E7B3F800A0BAF167
:10570000000F24D004F1140EA9464FF0000C5EF8EF
:10571000042BD9F800101FFA82FB89B20AFB0B1187
:105720004FEA124BD9F8002061444FEA124C0AFBB1
:105730000BC202EB114289B241EA0241774549F8B6
:10574000041B4FEA124CE2D8019A45F802C0039AB2
:10575000B2F802900433B9F1000F20D0296804F1A7
:10576000140CAE464FF0000ABCF800B0BEF80220A0
:1057700009FB0B22924489B241EA0A414EF8041B0C
:105780005CF8042BBEF80010120C09FB021101EBAF
:105790001A4167454FEA114AE6D8019AA9500435E3
:1057A0009AE7013E9CE700BF926D0008A36D0008D8
:1057B0002DE9F843154612F0030206460F4607D0BE
:1057C000254C013A002354F82220FFF79BFE0746A0
:1057D000AD103DD0746A7CB91020FFF71BFE024665
:1057E000706228B91D4B1E484FF4D77100F00EFCB3
:1057F000C0E901440460C460D6F82480D8F80840A9
:105800004CB940F271213046FFF712FF0023C8F86F
:105810000800044603604FF00009EB070AD539463B
:1058200022463046FFF71AFF394680463046FFF7DA
:1058300047FE47466D100BD0206838B922462146F6
:105840003046FFF70BFF2060C0F800900446E4E705
:105850003846BDE8F88300BF186F0008FD6C0008EB
:10586000A36D00082DE9F0470C464968236903EB56
:105870006218A368074691464FEA621A08F10106CA
:10588000B3420BDB3846FFF7DBFD054648B902465D
:105890002A4B2B4840F2D91100F0B8FB01315B00D4
:1058A000EEE7002300F1140100F110021846534501
:1058B00037DB20692AEAEA7A04F1140319F01F0998
:1058C00001EB8A0103EB80002FD0C9F1200E8A463C
:1058D0004FF0000C1A6802FA09F242EA0C024AF888
:1058E000042B53F8042B984222FA0EFCF2D8031B27
:1058F000153B23F00303043304F11502904238BF33
:10590000042341F803C0BCF1000F01D008F10206E6
:10591000013E38462E612146FFF7D2FD2846BDE8FC
:10592000F08742F8040F0133C1E7043953F8042B20
:1059300041F8042F9842F9D8EAE700BF926D0008B9
:10594000A36D000830B502690C69121B0ED100F17D
:105950001403143103EB840001EB840150F8045D5F
:1059600051F8044DA54203D005D30122104630BDA5
:105970008342F3D3FAE74FF0FF32F7E72DE9F84F10
:105980000C460646114620469046FFF7DBFF051EF3
:1059900010D129463046FFF753FD30B93A4B024645
:1059A00040F23221394800F031FB0123C0E90435CF
:1059B000BDE8F88FA4BF4346A0463046D8F804108F
:1059C000A6BF1C4600250125FFF73AFD20B92E4B46
:1059D00002464FF41071E5E7D8F810702669C560EB
:1059E00004F1140908F1140500F1140E05EB870CFD
:1059F00009EB860608F11002F246002159F8043B33
:105A000052F804BF1FFA83F811FA8BF11B0CA1EBBB
:105A10000808C3EB1B4303EB28431FFA88F819144B
:105A20004E4548EA03434AF8043BE7D8331B153B8D
:105A300023F0030304331534A64238BF04231D4466
:105A400073449E462E4666450ED30CF10302521B4C
:105A500022F00302033DAC4538BF00221A4452F83D
:105A6000043D7BB10761A3E756F8048B11FA88F275
:105A7000141404EB184492B242EA04424EF8042B88
:105A80002114E0E7013FEAE7926D0008A36D0008EA
:105A90002DE9F7438946012157EC106B9046FFF73B
:105AA000CFFC044630B90246254B264840F20A3165
:105AB00000F0ACFAC7F30A55C7F3130335BB002E49
:105AC000019328D068460096FFF782FD009900B345
:105AD000019AC0F1200302FA03F30B43C240636151
